{
  "contractName": "CertificadosAcademicos",
  "abi": [
    {
      "anonymous": false,
      "inputs": [
        {
          "indexed": true,
          "internalType": "string",
          "name": "estudiante",
          "type": "string"
        },
        {
          "indexed": false,
          "internalType": "string",
          "name": "ipfsHash",
          "type": "string"
        },
        {
          "indexed": false,
          "internalType": "uint256",
          "name": "fechaAutorizacion",
          "type": "uint256"
        }
      ],
      "name": "CertificadoAutorizado",
      "type": "event"
    },
    {
      "anonymous": false,
      "inputs": [
        {
          "indexed": true,
          "internalType": "address",
          "name": "estudiante",
          "type": "address"
        },
        {
          "indexed": false,
          "internalType": "string",
          "name": "ipfsHash",
          "type": "string"
        },
        {
          "indexed": false,
          "internalType": "string",
          "name": "nombre",
          "type": "string"
        },
        {
          "indexed": false,
          "internalType": "address",
          "name": "institucion",
          "type": "address"
        },
        {
          "indexed": false,
          "internalType": "string",
          "name": "fechaEmision",
          "type": "string"
        },
        {
          "indexed": false,
          "internalType": "string",
          "name": "titulo",
          "type": "string"
        }
      ],
      "name": "CertificadoEmitido",
      "type": "event"
    },
    {
      "anonymous": false,
      "inputs": [
        {
          "indexed": true,
          "internalType": "address",
          "name": "institucion",
          "type": "address"
        },
        {
          "indexed": false,
          "internalType": "bool",
          "name": "estado",
          "type": "bool"
        }
      ],
      "name": "EstadoInstitucionActualizado",
      "type": "event"
    },
    {
      "anonymous": false,
      "inputs": [
        {
          "indexed": true,
          "internalType": "address",
          "name": "institucion",
          "type": "address"
        },
        {
          "indexed": false,
          "internalType": "string",
          "name": "institucion_name",
          "type": "string"
        },
        {
          "indexed": false,
          "internalType": "string",
          "name": "resolucion",
          "type": "string"
        },
        {
          "indexed": false,
          "internalType": "bool",
          "name": "estado",
          "type": "bool"
        }
      ],
      "name": "InstitucionAgregada",
      "type": "event"
    },
    {
      "inputs": [
        {
          "internalType": "string",
          "name": "",
          "type": "string"
        }
      ],
      "name": "certificados",
      "outputs": [
        {
          "internalType": "address",
          "name": "estudiante",
          "type": "address"
        },
        {
          "internalType": "string",
          "name": "nombre",
          "type": "string"
        },
        {
          "internalType": "address",
          "name": "institucion",
          "type": "address"
        },
        {
          "internalType": "string",
          "name": "fechaEmision",
          "type": "string"
        },
        {
          "internalType": "string",
          "name": "titulo",
          "type": "string"
        },
        {
          "internalType": "bool",
          "name": "autorizado",
          "type": "bool"
        },
        {
          "internalType": "string",
          "name": "ipfsHash",
          "type": "string"
        }
      ],
      "stateMutability": "view",
      "type": "function",
      "constant": true
    },
    {
      "inputs": [
        {
          "internalType": "address",
          "name": "",
          "type": "address"
        }
      ],
      "name": "instituciones",
      "outputs": [
        {
          "internalType": "address",
          "name": "institucion",
          "type": "address"
        },
        {
          "internalType": "string",
          "name": "institucion_name",
          "type": "string"
        },
        {
          "internalType": "string",
          "name": "resolucion",
          "type": "string"
        },
        {
          "internalType": "bool",
          "name": "estado",
          "type": "bool"
        }
      ],
      "stateMutability": "view",
      "type": "function",
      "constant": true
    },
    {
      "inputs": [
        {
          "internalType": "string",
          "name": "ipfsHash",
          "type": "string"
        },
        {
          "internalType": "address",
          "name": "estudiante",
          "type": "address"
        },
        {
          "internalType": "string",
          "name": "nombre",
          "type": "string"
        },
        {
          "internalType": "string",
          "name": "fechaEmision",
          "type": "string"
        },
        {
          "internalType": "string",
          "name": "titulo",
          "type": "string"
        }
      ],
      "name": "emitirCertificado",
      "outputs": [],
      "stateMutability": "nonpayable",
      "type": "function"
    },
    {
      "inputs": [],
      "name": "obtenerTodosLosCertificados",
      "outputs": [
        {
          "internalType": "string[]",
          "name": "",
          "type": "string[]"
        }
      ],
      "stateMutability": "view",
      "type": "function",
      "constant": true
    },
    {
      "inputs": [],
      "name": "getAllCertificados",
      "outputs": [
        {
          "components": [
            {
              "internalType": "address",
              "name": "estudiante",
              "type": "address"
            },
            {
              "internalType": "string",
              "name": "nombre",
              "type": "string"
            },
            {
              "internalType": "address",
              "name": "institucion",
              "type": "address"
            },
            {
              "internalType": "string",
              "name": "fechaEmision",
              "type": "string"
            },
            {
              "internalType": "string",
              "name": "titulo",
              "type": "string"
            },
            {
              "internalType": "bool",
              "name": "autorizado",
              "type": "bool"
            },
            {
              "internalType": "string",
              "name": "ipfsHash",
              "type": "string"
            }
          ],
          "internalType": "struct CertificadosAcademicos.Certificado[]",
          "name": "",
          "type": "tuple[]"
        }
      ],
      "stateMutability": "view",
      "type": "function",
      "constant": true
    },
    {
      "inputs": [
        {
          "internalType": "address",
          "name": "estudiante",
          "type": "address"
        }
      ],
      "name": "getCertsxEstudiante",
      "outputs": [
        {
          "components": [
            {
              "internalType": "address",
              "name": "estudiante",
              "type": "address"
            },
            {
              "internalType": "string",
              "name": "nombre",
              "type": "string"
            },
            {
              "internalType": "address",
              "name": "institucion",
              "type": "address"
            },
            {
              "internalType": "string",
              "name": "fechaEmision",
              "type": "string"
            },
            {
              "internalType": "string",
              "name": "titulo",
              "type": "string"
            },
            {
              "internalType": "bool",
              "name": "autorizado",
              "type": "bool"
            },
            {
              "internalType": "string",
              "name": "ipfsHash",
              "type": "string"
            }
          ],
          "internalType": "struct CertificadosAcademicos.Certificado[]",
          "name": "",
          "type": "tuple[]"
        }
      ],
      "stateMutability": "view",
      "type": "function",
      "constant": true
    },
    {
      "inputs": [
        {
          "internalType": "address",
          "name": "institucion",
          "type": "address"
        }
      ],
      "name": "getCertsxInstitucion",
      "outputs": [
        {
          "components": [
            {
              "internalType": "address",
              "name": "estudiante",
              "type": "address"
            },
            {
              "internalType": "string",
              "name": "nombre",
              "type": "string"
            },
            {
              "internalType": "address",
              "name": "institucion",
              "type": "address"
            },
            {
              "internalType": "string",
              "name": "fechaEmision",
              "type": "string"
            },
            {
              "internalType": "string",
              "name": "titulo",
              "type": "string"
            },
            {
              "internalType": "bool",
              "name": "autorizado",
              "type": "bool"
            },
            {
              "internalType": "string",
              "name": "ipfsHash",
              "type": "string"
            }
          ],
          "internalType": "struct CertificadosAcademicos.Certificado[]",
          "name": "",
          "type": "tuple[]"
        }
      ],
      "stateMutability": "view",
      "type": "function",
      "constant": true
    },
    {
      "inputs": [
        {
          "internalType": "string",
          "name": "ipfsHash",
          "type": "string"
        }
      ],
      "name": "verCertificadoPorIPFS",
      "outputs": [
        {
          "components": [
            {
              "internalType": "address",
              "name": "estudiante",
              "type": "address"
            },
            {
              "internalType": "string",
              "name": "nombre",
              "type": "string"
            },
            {
              "internalType": "address",
              "name": "institucion",
              "type": "address"
            },
            {
              "internalType": "string",
              "name": "fechaEmision",
              "type": "string"
            },
            {
              "internalType": "string",
              "name": "titulo",
              "type": "string"
            },
            {
              "internalType": "bool",
              "name": "autorizado",
              "type": "bool"
            },
            {
              "internalType": "string",
              "name": "ipfsHash",
              "type": "string"
            }
          ],
          "internalType": "struct CertificadosAcademicos.Certificado",
          "name": "",
          "type": "tuple"
        }
      ],
      "stateMutability": "view",
      "type": "function",
      "constant": true
    },
    {
      "inputs": [
        {
          "internalType": "string",
          "name": "ipfsHash",
          "type": "string"
        }
      ],
      "name": "autorizarCertificado",
      "outputs": [],
      "stateMutability": "nonpayable",
      "type": "function"
    },
    {
      "inputs": [
        {
          "internalType": "address",
          "name": "institucion_wallet",
          "type": "address"
        },
        {
          "internalType": "string",
          "name": "institucion_name",
          "type": "string"
        },
        {
          "internalType": "string",
          "name": "resolucion",
          "type": "string"
        }
      ],
      "name": "agregarInstitucion",
      "outputs": [],
      "stateMutability": "nonpayable",
      "type": "function"
    },
    {
      "inputs": [
        {
          "internalType": "address",
          "name": "institucion_wallet",
          "type": "address"
        },
        {
          "internalType": "bool",
          "name": "nuevoEstado",
          "type": "bool"
        }
      ],
      "name": "actualizarEstadoInstitucion",
      "outputs": [],
      "stateMutability": "nonpayable",
      "type": "function"
    },
    {
      "inputs": [],
      "name": "getAllInstituciones",
      "outputs": [
        {
          "components": [
            {
              "internalType": "address",
              "name": "institucion",
              "type": "address"
            },
            {
              "internalType": "string",
              "name": "institucion_name",
              "type": "string"
            },
            {
              "internalType": "string",
              "name": "resolucion",
              "type": "string"
            },
            {
              "internalType": "bool",
              "name": "estado",
              "type": "bool"
            }
          ],
          "internalType": "struct CertificadosAcademicos.InstitucionAcademica[]",
          "name": "",
          "type": "tuple[]"
        }
      ],
      "stateMutability": "view",
      "type": "function",
      "constant": true
    }
  ],
  "bytecode": "0x608060405234801561001057600080fd5b50613b41806100206000396000f3fe608060405234801561001057600080fd5b50600436106100b45760003560e01c80637191dd8f116100715780637191dd8f146101a2578063af555abe146101d2578063bb5f2146146101ee578063bc88a9d11461020c578063d1f289251461022a578063fc7afe2d14610246576100b4565b806331185385146100b95780633ec4f304146100ec578063515c7ee1146101085780635704746a146101385780635a320e8e14610154578063673de97914610184575b600080fd5b6100d360048036038101906100ce9190612b9f565b61027c565b6040516100e39493929190613341565b60405180910390f35b61010660048036038101906101019190612c04565b6103e9565b005b610122600480360381019061011d9190612b9f565b6106c3565b60405161012f91906133b6565b60405180910390f35b610152600480360381019061014d9190612c83565b610bcb565b005b61016e60048036038101906101699190612c83565b610d74565b60405161017b9190613599565b60405180910390f35b61018c611154565b6040516101999190613394565b60405180910390f35b6101bc60048036038101906101b79190612b9f565b61132c565b6040516101c991906133b6565b60405180910390f35b6101ec60048036038101906101e79190612cc4565b611834565b005b6101f6611c3c565b60405161020391906133d8565b60405180910390f35b610214611e30565b60405161022191906133b6565b60405180910390f35b610244600480360381019061023f9190612bc8565b61219e565b005b610260600480360381019061025b9190612c83565b6122d9565b60405161027397969594939291906132b6565b60405180910390f35b60026020528060005260406000206000915090508060000160009054906101000a900473ffffffffffffffffffffffffffffffffffffffff16908060010180546102c59061382e565b80601f01602080910402602001604051908101604052809291908181526020018280546102f19061382e565b801561033e5780601f106103135761010080835404028352916020019161033e565b820191906000526020600020905b81548152906001019060200180831161032157829003601f168201915b5050505050908060020180546103539061382e565b80601f016020809104026020016040519081016040528092919081815260200182805461037f9061382e565b80156103cc5780601f106103a1576101008083540402835291602001916103cc565b820191906000526020600020905b8154815290600101906020018083116103af57829003601f168201915b5050505050908060030160009054906101000a900460ff16905084565b600260008473ffffffffffffffffffffffffffffffffffffffff1673ffffffffffffffffffffffffffffffffffffffff16815260200190815260200160002060030160009054906101000a900460ff1615610479576040517f08c379a000000000000000000000000000000000000000000000000000000000815260040161047090613519565b60405180910390fd5b600060405180608001604052808573ffffffffffffffffffffffffffffffffffffffff168152602001848152602001838152602001600115158152509050600381908060018154018082558091505060019003906000526020600020906004020160009091909190915060008201518160000160006101000a81548173ffffffffffffffffffffffffffffffffffffffff021916908373ffffffffffffffffffffffffffffffffffffffff16021790555060208201518160010190805190602001906105469291906129ff565b5060408201518160020190805190602001906105639291906129ff565b5060608201518160030160006101000a81548160ff021916908315150217905550505080600260008673ffffffffffffffffffffffffffffffffffffffff1673ffffffffffffffffffffffffffffffffffffffff16815260200190815260200160002060008201518160000160006101000a81548173ffffffffffffffffffffffffffffffffffffffff021916908373ffffffffffffffffffffffffffffffffffffffff16021790555060208201518160010190805190602001906106299291906129ff565b5060408201518160020190805190602001906106469291906129ff565b5060608201518160030160006101000a81548160ff0219169083151502179055509050508373ffffffffffffffffffffffffffffffffffffffff167fef008cc2673fa724949288aa0d9f80e7ddc5d90d6e669c741d6c1c995c7ff403848460016040516106b593929190613484565b60405180910390a250505050565b6060600060018054905067ffffffffffffffff81111561070c577f4e487b7100000000000000000000000000000000000000000000000000000000600052604160045260246000fd5b60405190808252806020026020018201604052801561074557816020015b610732612a85565b81526020019060019003908161072a5790505b5090506000805b600180549050811015610bc05760018181548110610793577f4e487b7100000000000000000000000000000000000000000000000000000000600052603260045260246000fd5b906000526020600020906007020160000160009054906101000a900473ffffffffffffffffffffffffffffffffffffffff1673ffffffffffffffffffffffffffffffffffffffff168573ffffffffffffffffffffffffffffffffffffffff161415610bad5760018181548110610832577f4e487b7100000000000000000000000000000000000000000000000000000000600052603260045260246000fd5b90600052602060002090600702016040518060e00160405290816000820160009054906101000a900473ffffffffffffffffffffffffffffffffffffffff1673ffffffffffffffffffffffffffffffffffffffff1673ffffffffffffffffffffffffffffffffffffffff1681526020016001820180546108b19061382e565b80601f01602080910402602001604051908101604052809291908181526020018280546108dd9061382e565b801561092a5780601f106108ff5761010080835404028352916020019161092a565b820191906000526020600020905b81548152906001019060200180831161090d57829003601f168201915b505050505081526020016002820160009054906101000a900473ffffffffffffffffffffffffffffffffffffffff1673ffffffffffffffffffffffffffffffffffffffff1673ffffffffffffffffffffffffffffffffffffffff1681526020016003820180546109999061382e565b80601f01602080910402602001604051908101604052809291908181526020018280546109c59061382e565b8015610a125780601f106109e757610100808354040283529160200191610a12565b820191906000526020600020905b8154815290600101906020018083116109f557829003601f168201915b50505050508152602001600482018054610a2b9061382e565b80601f0160208091040260200160405190810160405280929190818152602001828054610a579061382e565b8015610aa45780601f10610a7957610100808354040283529160200191610aa4565b820191906000526020600020905b815481529060010190602001808311610a8757829003601f168201915b505050505081526020016005820160009054906101000a900460ff16151515158152602001600682018054610ad89061382e565b80601f0160208091040260200160405190810160405280929190818152602001828054610b049061382e565b8015610b515780601f10610b2657610100808354040283529160200191610b51565b820191906000526020600020905b815481529060010190602001808311610b3457829003601f168201915b505050505081525050838381518110610b93577f4e487b7100000000000000000000000000000000000000000000000000000000600052603260045260246000fd5b60200260200101819052508180610ba990613891565b9250505b8080610bb890613891565b91505061074c565b508192505050919050565b60008082604051610bdc919061329f565b90815260200160405180910390209050600073ffffffffffffffffffffffffffffffffffffffff168160000160009054906101000a900473ffffffffffffffffffffffffffffffffffffffff1673ffffffffffffffffffffffffffffffffffffffff161415610c80576040517f08c379a0000000000000000000000000000000000000000000000000000000008152600401610c7790613559565b60405180910390fd5b600015158160050160009054906101000a900460ff16151514610cd8576040517f08c379a0000000000000000000000000000000000000000000000000000000008152600401610ccf90613539565b60405180910390fd5b60018160050160006101000a81548160ff021916908315150217905550610d228160000160009054906101000a900473ffffffffffffffffffffffffffffffffffffffff1661259e565b604051610d2f919061329f565b60405180910390207f206d4f9f304d0cf21aa60ac6ab92835a99eb60535f0e148c745f29c2e3e73bae8342604051610d689291906134c9565b60405180910390a25050565b610d7c612a85565b60008083604051610d8d919061329f565b90815260200160405180910390209050600073ffffffffffffffffffffffffffffffffffffffff168160000160009054906101000a900473ffffffffffffffffffffffffffffffffffffffff1673ffffffffffffffffffffffffffffffffffffffff161415610e31576040517f08c379a0000000000000000000000000000000000000000000000000000000008152600401610e2890613559565b60405180910390fd5b806040518060e00160405290816000820160009054906101000a900473ffffffffffffffffffffffffffffffffffffffff1673ffffffffffffffffffffffffffffffffffffffff1673ffffffffffffffffffffffffffffffffffffffff168152602001600182018054610ea39061382e565b80601f0160208091040260200160405190810160405280929190818152602001828054610ecf9061382e565b8015610f1c5780601f10610ef157610100808354040283529160200191610f1c565b820191906000526020600020905b815481529060010190602001808311610eff57829003601f168201915b505050505081526020016002820160009054906101000a900473ffffffffffffffffffffffffffffffffffffffff1673ffffffffffffffffffffffffffffffffffffffff1673ffffffffffffffffffffffffffffffffffffffff168152602001600382018054610f8b9061382e565b80601f0160208091040260200160405190810160405280929190818152602001828054610fb79061382e565b80156110045780601f10610fd957610100808354040283529160200191611004565b820191906000526020600020905b815481529060010190602001808311610fe757829003601f168201915b5050505050815260200160048201805461101d9061382e565b80601f01602080910402602001604051908101604052809291908181526020018280546110499061382e565b80156110965780601f1061106b57610100808354040283529160200191611096565b820191906000526020600020905b81548152906001019060200180831161107957829003601f168201915b505050505081526020016005820160009054906101000a900460ff161515151581526020016006820180546110ca9061382e565b80601f01602080910402602001604051908101604052809291908181526020018280546110f69061382e565b80156111435780601f1061111857610100808354040283529160200191611143565b820191906000526020600020905b81548152906001019060200180831161112657829003601f168201915b505050505081525050915050919050565b6060600060018054905067ffffffffffffffff81111561119d577f4e487b7100000000000000000000000000000000000000000000000000000000600052604160045260246000fd5b6040519080825280602002602001820160405280156111d057816020015b60608152602001906001900390816111bb5790505b5090506000805b60018054905081101561132357600060018281548110611220577f4e487b7100000000000000000000000000000000000000000000000000000000600052603260045260246000fd5b9060005260206000209060070201600601805461123c9061382e565b80601f01602080910402602001604051908101604052809291908181526020018280546112689061382e565b80156112b55780601f1061128a576101008083540402835291602001916112b5565b820191906000526020600020905b81548152906001019060200180831161129857829003601f168201915b50505050509050808484815181106112f6577f4e487b7100000000000000000000000000000000000000000000000000000000600052603260045260246000fd5b6020026020010181905250828061130c90613891565b93505050808061131b90613891565b9150506111d7565b50819250505090565b6060600060018054905067ffffffffffffffff811115611375577f4e487b7100000000000000000000000000000000000000000000000000000000600052604160045260246000fd5b6040519080825280602002602001820160405280156113ae57816020015b61139b612a85565b8152602001906001900390816113935790505b5090506000805b60018054905081101561182957600181815481106113fc577f4e487b7100000000000000000000000000000000000000000000000000000000600052603260045260246000fd5b906000526020600020906007020160020160009054906101000a900473ffffffffffffffffffffffffffffffffffffffff1673ffffffffffffffffffffffffffffffffffffffff168573ffffffffffffffffffffffffffffffffffffffff161415611816576001818154811061149b577f4e487b7100000000000000000000000000000000000000000000000000000000600052603260045260246000fd5b90600052602060002090600702016040518060e00160405290816000820160009054906101000a900473ffffffffffffffffffffffffffffffffffffffff1673ffffffffffffffffffffffffffffffffffffffff1673ffffffffffffffffffffffffffffffffffffffff16815260200160018201805461151a9061382e565b80601f01602080910402602001604051908101604052809291908181526020018280546115469061382e565b80156115935780601f1061156857610100808354040283529160200191611593565b820191906000526020600020905b81548152906001019060200180831161157657829003601f168201915b505050505081526020016002820160009054906101000a900473ffffffffffffffffffffffffffffffffffffffff1673ffffffffffffffffffffffffffffffffffffffff1673ffffffffffffffffffffffffffffffffffffffff1681526020016003820180546116029061382e565b80601f016020809104026020016040519081016040528092919081815260200182805461162e9061382e565b801561167b5780601f106116505761010080835404028352916020019161167b565b820191906000526020600020905b81548152906001019060200180831161165e57829003601f168201915b505050505081526020016004820180546116949061382e565b80601f01602080910402602001604051908101604052809291908181526020018280546116c09061382e565b801561170d5780601f106116e25761010080835404028352916020019161170d565b820191906000526020600020905b8154815290600101906020018083116116f057829003601f168201915b505050505081526020016005820160009054906101000a900460ff161515151581526020016006820180546117419061382e565b80601f016020809104026020016040519081016040528092919081815260200182805461176d9061382e565b80156117ba5780601f1061178f576101008083540402835291602001916117ba565b820191906000526020600020905b81548152906001019060200180831161179d57829003601f168201915b5050505050815250508383815181106117fc577f4e487b7100000000000000000000000000000000000000000000000000000000600052603260045260246000fd5b6020026020010181905250818061181290613891565b9250505b808061182190613891565b9150506113b5565b508192505050919050565b600073ffffffffffffffffffffffffffffffffffffffff1660008660405161185c919061329f565b908152602001604051809103902060000160009054906101000a900473ffffffffffffffffffffffffffffffffffffffff1673ffffffffffffffffffffffffffffffffffffffff16146118e4576040517f08c379a00000000000000000000000000000000000000000000000000000000081526004016118db906134f9565b60405180910390fd5b60006040518060e001604052808673ffffffffffffffffffffffffffffffffffffffff1681526020018581526020013373ffffffffffffffffffffffffffffffffffffffff168152602001848152602001838152602001600015158152602001878152509050600181908060018154018082558091505060019003906000526020600020906007020160009091909190915060008201518160000160006101000a81548173ffffffffffffffffffffffffffffffffffffffff021916908373ffffffffffffffffffffffffffffffffffffffff16021790555060208201518160010190805190602001906119d99291906129ff565b5060408201518160020160006101000a81548173ffffffffffffffffffffffffffffffffffffffff021916908373ffffffffffffffffffffffffffffffffffffffff1602179055506060820151816003019080519060200190611a3d9291906129ff565b506080820151816004019080519060200190611a5a9291906129ff565b5060a08201518160050160006101000a81548160ff02191690831515021790555060c0820151816006019080519060200190611a979291906129ff565b50505080600087604051611aab919061329f565b908152602001604051809103902060008201518160000160006101000a81548173ffffffffffffffffffffffffffffffffffffffff021916908373ffffffffffffffffffffffffffffffffffffffff1602179055506020820151816001019080519060200190611b1c9291906129ff565b5060408201518160020160006101000a81548173ffffffffffffffffffffffffffffffffffffffff021916908373ffffffffffffffffffffffffffffffffffffffff1602179055506060820151816003019080519060200190611b809291906129ff565b506080820151816004019080519060200190611b9d9291906129ff565b5060a08201518160050160006101000a81548160ff02191690831515021790555060c0820151816006019080519060200190611bda9291906129ff565b509050508473ffffffffffffffffffffffffffffffffffffffff167fbdf1748dc677723d5b6b12b8f93469a780dd992d16b2633ab0d5d22db57af2f28786338787604051611c2c959493929190613415565b60405180910390a2505050505050565b60606003805480602002602001604051908101604052809291908181526020016000905b82821015611e2757838290600052602060002090600402016040518060800160405290816000820160009054906101000a900473ffffffffffffffffffffffffffffffffffffffff1673ffffffffffffffffffffffffffffffffffffffff1673ffffffffffffffffffffffffffffffffffffffff168152602001600182018054611ce99061382e565b80601f0160208091040260200160405190810160405280929190818152602001828054611d159061382e565b8015611d625780601f10611d3757610100808354040283529160200191611d62565b820191906000526020600020905b815481529060010190602001808311611d4557829003601f168201915b50505050508152602001600282018054611d7b9061382e565b80601f0160208091040260200160405190810160405280929190818152602001828054611da79061382e565b8015611df45780601f10611dc957610100808354040283529160200191611df4565b820191906000526020600020905b815481529060010190602001808311611dd757829003601f168201915b505050505081526020016003820160009054906101000a900460ff16151515158152505081526020019060010190611c60565b50505050905090565b60606001805480602002602001604051908101604052809291908181526020016000905b8282101561219557838290600052602060002090600702016040518060e00160405290816000820160009054906101000a900473ffffffffffffffffffffffffffffffffffffffff1673ffffffffffffffffffffffffffffffffffffffff1673ffffffffffffffffffffffffffffffffffffffff168152602001600182018054611edd9061382e565b80601f0160208091040260200160405190810160405280929190818152602001828054611f099061382e565b8015611f565780601f10611f2b57610100808354040283529160200191611f56565b820191906000526020600020905b815481529060010190602001808311611f3957829003601f168201915b505050505081526020016002820160009054906101000a900473ffffffffffffffffffffffffffffffffffffffff1673ffffffffffffffffffffffffffffffffffffffff1673ffffffffffffffffffffffffffffffffffffffff168152602001600382018054611fc59061382e565b80601f0160208091040260200160405190810160405280929190818152602001828054611ff19061382e565b801561203e5780601f106120135761010080835404028352916020019161203e565b820191906000526020600020905b81548152906001019060200180831161202157829003601f168201915b505050505081526020016004820180546120579061382e565b80601f01602080910402602001604051908101604052809291908181526020018280546120839061382e565b80156120d05780601f106120a5576101008083540402835291602001916120d0565b820191906000526020600020905b8154815290600101906020018083116120b357829003601f168201915b505050505081526020016005820160009054906101000a900460ff161515151581526020016006820180546121049061382e565b80601f01602080910402602001604051908101604052809291908181526020018280546121309061382e565b801561217d5780601f106121525761010080835404028352916020019161217d565b820191906000526020600020905b81548152906001019060200180831161216057829003601f168201915b50505050508152505081526020019060010190611e54565b50505050905090565b600260008373ffffffffffffffffffffffffffffffffffffffff1673ffffffffffffffffffffffffffffffffffffffff16815260200190815260200160002060030160009054906101000a900460ff1661222d576040517f08c379a000000000000000000000000000000000000000000000000000000000815260040161222490613579565b60405180910390fd5b80600260008473ffffffffffffffffffffffffffffffffffffffff1673ffffffffffffffffffffffffffffffffffffffff16815260200190815260200160002060030160006101000a81548160ff0219169083151502179055508173ffffffffffffffffffffffffffffffffffffffff167ffc2cb808b5e98b2a924c00e9e31b161d8d05ab737d1a21b19a3ee13b57036a85826040516122cd91906133fa565b60405180910390a25050565b6000818051602081018201805184825260208301602085012081835280955050505050506000915090508060000160009054906101000a900473ffffffffffffffffffffffffffffffffffffffff16908060010180546123389061382e565b80601f01602080910402602001604051908101604052809291908181526020018280546123649061382e565b80156123b15780601f10612386576101008083540402835291602001916123b1565b820191906000526020600020905b81548152906001019060200180831161239457829003601f168201915b5050505050908060020160009054906101000a900473ffffffffffffffffffffffffffffffffffffffff16908060030180546123ec9061382e565b80601f01602080910402602001604051908101604052809291908181526020018280546124189061382e565b80156124655780601f1061243a57610100808354040283529160200191612465565b820191906000526020600020905b81548152906001019060200180831161244857829003601f168201915b50505050509080600401805461247a9061382e565b80601f01602080910402602001604051908101604052809291908181526020018280546124a69061382e565b80156124f35780601f106124c8576101008083540402835291602001916124f3565b820191906000526020600020905b8154815290600101906020018083116124d657829003601f168201915b5050505050908060050160009054906101000a900460ff169080600601805461251b9061382e565b80601f01602080910402602001604051908101604052809291908181526020018280546125479061382e565b80156125945780601f1061256957610100808354040283529160200191612594565b820191906000526020600020905b81548152906001019060200180831161257757829003601f168201915b5050505050905087565b606060008273ffffffffffffffffffffffffffffffffffffffff1660001b905060006040518060400160405280601081526020017f303132333435363738394142434445460000000000000000000000000000000081525090506000602a67ffffffffffffffff81111561263b577f4e487b7100000000000000000000000000000000000000000000000000000000600052604160045260246000fd5b6040519080825280601f01601f19166020018201604052801561266d5781602001600182028036833780820191505090505b5090507f3000000000000000000000000000000000000000000000000000000000000000816000815181106126cb577f4e487b7100000000000000000000000000000000000000000000000000000000600052603260045260246000fd5b60200101907effffffffffffffffffffffffffffffffffffffffffffffffffffffffffffff1916908160001a9053507f780000000000000000000000000000000000000000000000000000000000000081600181518110612755577f4e487b7100000000000000000000000000000000000000000000000000000000600052603260045260246000fd5b60200101907effffffffffffffffffffffffffffffffffffffffffffffffffffffffffffff1916908160001a90535060005b60148110156129f35782600485600c846127a191906136f4565b602081106127d8577f4e487b7100000000000000000000000000000000000000000000000000000000600052603260045260246000fd5b1a60f81b7effffffffffffffffffffffffffffffffffffffffffffffffffffffffffffff1916901c60f81c60ff168151811061283d577f4e487b7100000000000000000000000000000000000000000000000000000000600052603260045260246000fd5b602001015160f81c60f81b82600283612856919061374a565b600261286291906136f4565b81518110612899577f4e487b7100000000000000000000000000000000000000000000000000000000600052603260045260246000fd5b60200101907effffffffffffffffffffffffffffffffffffffffffffffffffffffffffffff1916908160001a90535082600f60f81b85600c846128dc91906136f4565b60208110612913577f4e487b7100000000000000000000000000000000000000000000000000000000600052603260045260246000fd5b1a60f81b1660f81c60ff1681518110612955577f4e487b7100000000000000000000000000000000000000000000000000000000600052603260045260246000fd5b602001015160f81c60f81b8260028361296e919061374a565b600361297a91906136f4565b815181106129b1577f4e487b7100000000000000000000000000000000000000000000000000000000600052603260045260246000fd5b60200101907effffffffffffffffffffffffffffffffffffffffffffffffffffffffffffff1916908160001a90535080806129eb90613891565b915050612787565b50809350505050919050565b828054612a0b9061382e565b90600052602060002090601f016020900481019282612a2d5760008555612a74565b82601f10612a4657805160ff1916838001178555612a74565b82800160010185558215612a74579182015b82811115612a73578251825591602001919060010190612a58565b5b509050612a819190612af0565b5090565b6040518060e00160405280600073ffffffffffffffffffffffffffffffffffffffff16815260200160608152602001600073ffffffffffffffffffffffffffffffffffffffff1681526020016060815260200160608152602001600015158152602001606081525090565b5b80821115612b09576000816000905550600101612af1565b5090565b6000612b20612b1b846135e0565b6135bb565b905082815260208101848484011115612b3857600080fd5b612b438482856137ec565b509392505050565b600081359050612b5a81613add565b92915050565b600081359050612b6f81613af4565b92915050565b600082601f830112612b8657600080fd5b8135612b96848260208601612b0d565b91505092915050565b600060208284031215612bb157600080fd5b6000612bbf84828501612b4b565b91505092915050565b60008060408385031215612bdb57600080fd5b6000612be985828601612b4b565b9250506020612bfa85828601612b60565b9150509250929050565b600080600060608486031215612c1957600080fd5b6000612c2786828701612b4b565b935050602084013567ffffffffffffffff811115612c4457600080fd5b612c5086828701612b75565b925050604084013567ffffffffffffffff811115612c6d57600080fd5b612c7986828701612b75565b9150509250925092565b600060208284031215612c9557600080fd5b600082013567ffffffffffffffff811115612caf57600080fd5b612cbb84828501612b75565b91505092915050565b600080600080600060a08688031215612cdc57600080fd5b600086013567ffffffffffffffff811115612cf657600080fd5b612d0288828901612b75565b9550506020612d1388828901612b4b565b945050604086013567ffffffffffffffff811115612d3057600080fd5b612d3c88828901612b75565b935050606086013567ffffffffffffffff811115612d5957600080fd5b612d6588828901612b75565b925050608086013567ffffffffffffffff811115612d8257600080fd5b612d8e88828901612b75565b9150509295509295909350565b6000612da78383612f72565b905092915050565b6000612dbb83836130c4565b905092915050565b6000612dcf8383613226565b905092915050565b612de0816137a4565b82525050565b612def816137a4565b82525050565b6000612e0082613641565b612e0a8185613694565b935083602082028501612e1c85613611565b8060005b85811015612e585784840389528151612e398582612d9b565b9450612e448361366d565b925060208a01995050600181019050612e20565b50829750879550505050505092915050565b6000612e758261364c565b612e7f81856136a5565b935083602082028501612e9185613621565b8060005b85811015612ecd5784840389528151612eae8582612daf565b9450612eb98361367a565b925060208a01995050600181019050612e95565b50829750879550505050505092915050565b6000612eea82613657565b612ef481856136b6565b935083602082028501612f0685613631565b8060005b85811015612f425784840389528151612f238582612dc3565b9450612f2e83613687565b925060208a01995050600181019050612f0a565b50829750879550505050505092915050565b612f5d816137b6565b82525050565b612f6c816137b6565b82525050565b6000612f7d82613662565b612f8781856136c7565b9350612f978185602086016137fb565b612fa081613967565b840191505092915050565b6000612fb682613662565b612fc081856136d8565b9350612fd08185602086016137fb565b612fd981613967565b840191505092915050565b6000612fef82613662565b612ff981856136e9565b93506130098185602086016137fb565b80840191505092915050565b60006130226019836136d8565b915061302d82613978565b602082019050919050565b60006130456022836136d8565b9150613050826139a1565b604082019050919050565b60006130686022836136d8565b9150613073826139f0565b604082019050919050565b600061308b603a836136d8565b915061309682613a3f565b604082019050919050565b60006130ae6022836136d8565b91506130b982613a8e565b604082019050919050565b600060e0830160008301516130dc6000860182612dd7565b50602083015184820360208601526130f48282612f72565b91505060408301516131096040860182612dd7565b50606083015184820360608601526131218282612f72565b9150506080830151848203608086015261313b8282612f72565b91505060a083015161315060a0860182612f54565b5060c083015184820360c08601526131688282612f72565b9150508091505092915050565b600060e08301600083015161318d6000860182612dd7565b50602083015184820360208601526131a58282612f72565b91505060408301516131ba6040860182612dd7565b50606083015184820360608601526131d28282612f72565b915050608083015184820360808601526131ec8282612f72565b91505060a083015161320160a0860182612f54565b5060c083015184820360c08601526132198282612f72565b9150508091505092915050565b600060808301600083015161323e6000860182612dd7565b50602083015184820360208601526132568282612f72565b915050604083015184820360408601526132708282612f72565b91505060608301516132856060860182612f54565b508091505092915050565b613299816137e2565b82525050565b60006132ab8284612fe4565b915081905092915050565b600060e0820190506132cb600083018a612de6565b81810360208301526132dd8189612fab565b90506132ec6040830188612de6565b81810360608301526132fe8187612fab565b905081810360808301526133128186612fab565b905061332160a0830185612f63565b81810360c08301526133338184612fab565b905098975050505050505050565b60006080820190506133566000830187612de6565b81810360208301526133688186612fab565b9050818103604083015261337c8185612fab565b905061338b6060830184612f63565b95945050505050565b600060208201905081810360008301526133ae8184612df5565b905092915050565b600060208201905081810360008301526133d08184612e6a565b905092915050565b600060208201905081810360008301526133f28184612edf565b905092915050565b600060208201905061340f6000830184612f63565b92915050565b600060a082019050818103600083015261342f8188612fab565b905081810360208301526134438187612fab565b90506134526040830186612de6565b81810360608301526134648185612fab565b905081810360808301526134788184612fab565b90509695505050505050565b6000606082019050818103600083015261349e8186612fab565b905081810360208301526134b28185612fab565b90506134c16040830184612f63565b949350505050565b600060408201905081810360008301526134e38185612fab565b90506134f26020830184613290565b9392505050565b6000602082019050818103600083015261351281613015565b9050919050565b6000602082019050818103600083015261353281613038565b9050919050565b600060208201905081810360008301526135528161305b565b9050919050565b600060208201905081810360008301526135728161307e565b9050919050565b60006020820190508181036000830152613592816130a1565b9050919050565b600060208201905081810360008301526135b38184613175565b905092915050565b60006135c56135d6565b90506135d18282613860565b919050565b6000604051905090565b600067ffffffffffffffff8211156135fb576135fa613938565b5b61360482613967565b9050602081019050919050565b6000819050602082019050919050565b6000819050602082019050919050565b6000819050602082019050919050565b600081519050919050565b600081519050919050565b600081519050919050565b600081519050919050565b6000602082019050919050565b6000602082019050919050565b6000602082019050919050565b600082825260208201905092915050565b600082825260208201905092915050565b600082825260208201905092915050565b600082825260208201905092915050565b600082825260208201905092915050565b600081905092915050565b60006136ff826137e2565b915061370a836137e2565b9250827fffffffffffffffffffffffffffffffffffffffffffffffffffffffffffffffff0382111561373f5761373e6138da565b5b828201905092915050565b6000613755826137e2565b9150613760836137e2565b9250817fffffffffffffffffffffffffffffffffffffffffffffffffffffffffffffffff0483118215151615613799576137986138da565b5b828202905092915050565b60006137af826137c2565b9050919050565b60008115159050919050565b600073ffffffffffffffffffffffffffffffffffffffff82169050919050565b6000819050919050565b82818337600083830152505050565b60005b838110156138195780820151818401526020810190506137fe565b83811115613828576000848401525b50505050565b6000600282049050600182168061384657607f821691505b6020821081141561385a57613859613909565b5b50919050565b61386982613967565b810181811067ffffffffffffffff8211171561388857613887613938565b5b80604052505050565b600061389c826137e2565b91507fffffffffffffffffffffffffffffffffffffffffffffffffffffffffffffffff8214156138cf576138ce6138da565b5b600182019050919050565b7f4e487b7100000000000000000000000000000000000000000000000000000000600052601160045260246000fd5b7f4e487b7100000000000000000000000000000000000000000000000000000000600052602260045260246000fd5b7f4e487b7100000000000000000000000000000000000000000000000000000000600052604160045260246000fd5b6000601f19601f8301169050919050565b7f456c20636572746966696361646f207961206578697374652e00000000000000600082015250565b7f4c6120696e737469747563696f6e20796120657374612072656769737472616460008201527f612e000000000000000000000000000000000000000000000000000000000000602082015250565b7f456c20636572746966696361646f2079612065737461206175746f72697a616460008201527f6f2e000000000000000000000000000000000000000000000000000000000000602082015250565b7f436572746966696361646f206e6f20656e636f6e747261646f2070617261206560008201527f6c206861736820495046532070726f706f7263696f6e61646f2e000000000000602082015250565b7f4c6120696e737469747563696f6e206e6f20657374612072656769737472616460008201527f612e000000000000000000000000000000000000000000000000000000000000602082015250565b613ae6816137a4565b8114613af157600080fd5b50565b613afd816137b6565b8114613b0857600080fd5b5056fea26469706673582212203f59504c22de5b9910f7a9c6027eac355ee809a08ba07cf8a1fc6e0967cc2dce64736f6c63430008040033",
  "immutableReferences": {},
  "source": "// SPDX-License-Identifier: MIT\r\npragma solidity ^0.8.0;\r\n\r\ncontract CertificadosAcademicos {\r\n    struct Certificado {\r\n        address estudiante;\r\n        string nombre;\r\n        address institucion;\r\n        string fechaEmision;\r\n        string titulo;\r\n        bool autorizado;\r\n        string ipfsHash;\r\n    }\r\n\r\n    mapping(string => Certificado) public certificados;\r\n    Certificado[] private certs;\r\n\r\n    struct InstitucionAcademica {\r\n        address institucion;\r\n        string institucion_name;\r\n        string resolucion;\r\n        bool estado;\r\n    }\r\n\r\n    mapping(address => InstitucionAcademica) public instituciones;\r\n    InstitucionAcademica[] private insts;\r\n\r\n    event CertificadoEmitido(address indexed estudiante, string ipfsHash, string nombre, address institucion, string fechaEmision, string titulo);\r\n    event CertificadoAutorizado(string indexed estudiante, string ipfsHash, uint fechaAutorizacion);\r\n    event InstitucionAgregada(address indexed institucion, string institucion_name, string resolucion, bool estado);\r\n    event EstadoInstitucionActualizado(address indexed institucion, bool estado);\r\n\r\n    function emitirCertificado(\r\n        string memory ipfsHash,\r\n        address estudiante,\r\n        string memory nombre,\r\n        string memory fechaEmision,\r\n        string memory titulo\r\n    ) public {\r\n        //require(instituciones[msg.sender].institucion == address(0), \"La direccion del emisor no se encuentra autorizada para emitir certificados\");\r\n        require(certificados[ipfsHash].estudiante == address(0), \"El certificado ya existe.\");\r\n\r\n        Certificado memory nuevoCertificado = Certificado({\r\n            estudiante: estudiante,\r\n            nombre: nombre,\r\n            institucion: msg.sender,\r\n            fechaEmision: fechaEmision,\r\n            titulo: titulo,\r\n            autorizado: false,\r\n            ipfsHash: ipfsHash\r\n        });\r\n\r\n        certs.push(nuevoCertificado);\r\n        certificados[ipfsHash] = nuevoCertificado; // Almacenar el certificado en el mapping\r\n        emit CertificadoEmitido(estudiante, ipfsHash, nombre, msg.sender, fechaEmision, titulo);\r\n    }\r\n    \r\n    function obtenerTodosLosCertificados() public view returns (string[] memory) {\r\n        string[] memory certificadosGenerados = new string[](certs.length);\r\n        uint contador = 0;\r\n\r\n        // Recorrer todos los certificados y agregar los hash IPFS a la lista\r\n        for (uint i = 0; i < certs.length; i++) {\r\n            string memory ipfsHash = certs[i].ipfsHash;\r\n            certificadosGenerados[contador] = ipfsHash;\r\n            contador++;\r\n        }\r\n\r\n        return certificadosGenerados;\r\n    }\r\n    \r\n    // Obtener todos los certificados emitidos\r\n    function getAllCertificados() public view returns (Certificado[] memory) {\r\n        return certs;\r\n    }\r\n\r\n    function getCertsxEstudiante(address estudiante) public view returns (Certificado[] memory) {\r\n        Certificado[] memory certificadosGenerados = new Certificado[](certs.length);\r\n        uint contador = 0;\r\n\r\n        // Recorrer todos los certificados y agregar los hash IPFS a la lista\r\n        for (uint i = 0; i < certs.length; i++) {\r\n            if (estudiante == certs[i].estudiante) {\r\n                certificadosGenerados[contador] = certs[i];\r\n                contador++;\r\n            }\r\n        }\r\n\r\n        return certificadosGenerados;\r\n    }\r\n\r\n    function getCertsxInstitucion(address institucion) public view returns (Certificado[] memory) {\r\n        Certificado[] memory certificadosGenerados = new Certificado[](certs.length);\r\n        uint contador = 0;\r\n\r\n        // Recorrer todos los certificados y agregar los hash IPFS a la lista\r\n        for (uint i = 0; i < certs.length; i++) {\r\n            if (institucion == certs[i].institucion) {\r\n                certificadosGenerados[contador] = certs[i];\r\n                contador++;\r\n            }\r\n        }\r\n\r\n        return certificadosGenerados;\r\n    }\r\n\r\n    function verCertificadoPorIPFS(string memory ipfsHash) public view returns (Certificado memory) {\r\n        Certificado storage cert = certificados[ipfsHash];\r\n        require(cert.estudiante != address(0), \"Certificado no encontrado para el hash IPFS proporcionado.\");\r\n        return cert;\r\n    }\r\n\r\n    function autorizarCertificado(string memory ipfsHash) public {\r\n        Certificado storage cert = certificados[ipfsHash];\r\n        require(cert.estudiante != address(0), \"Certificado no encontrado para el hash IPFS proporcionado.\");\r\n        require(cert.autorizado == false, \"El certificado ya esta autorizado.\");\r\n        cert.autorizado = true;\r\n        emit CertificadoAutorizado(addressToString(cert.estudiante), ipfsHash, block.timestamp);\r\n    }\r\n\r\n    //operaciones institucion\r\n    function agregarInstitucion(\r\n        address institucion_wallet,\r\n        string memory institucion_name,\r\n        string memory resolucion\r\n    ) public {\r\n        require(!instituciones[institucion_wallet].estado, \"La institucion ya esta registrada.\");\r\n        InstitucionAcademica memory nuevaInstitucion = InstitucionAcademica({\r\n            institucion: institucion_wallet,\r\n            institucion_name: institucion_name,\r\n            resolucion: resolucion,\r\n            estado: true\r\n        });\r\n\r\n        insts.push(nuevaInstitucion);\r\n        instituciones[institucion_wallet] = nuevaInstitucion;\r\n        emit InstitucionAgregada(institucion_wallet, institucion_name, resolucion, true);\r\n    }\r\n\r\n    function actualizarEstadoInstitucion(address institucion_wallet, bool nuevoEstado) public {\r\n        require(instituciones[institucion_wallet].estado, \"La institucion no esta registrada.\");\r\n        instituciones[institucion_wallet].estado = nuevoEstado;\r\n        emit EstadoInstitucionActualizado(institucion_wallet, nuevoEstado);\r\n    }\r\n\r\n    function institucionExisteYActiva(address institucion_wallet) internal view returns (address) {\r\n        return instituciones[institucion_wallet].institucion;\r\n    }\r\n\r\n    function getAllInstituciones() public view returns (InstitucionAcademica[] memory) {\r\n        return insts;\r\n    }\r\n\r\n\r\n    // Funcin auxiliar para convertir una direccin Ethereum en una cadena (para el evento)\r\n    function addressToString(address _address) internal pure returns (string memory) {\r\n        bytes32 _bytes = bytes32(uint256(uint160(_address)));\r\n        bytes memory HEX = \"0123456789ABCDEF\";\r\n        bytes memory _string = new bytes(42);\r\n        _string[0] = \"0\";\r\n        _string[1] = \"x\";\r\n        for (uint i = 0; i < 20; i++) {\r\n            _string[2 + i * 2] = HEX[uint8(_bytes[i + 12] >> 4)];\r\n            _string[3 + i * 2] = HEX[uint8(_bytes[i + 12] & 0x0f)];\r\n        }\r\n        return string(_string);\r\n    }\r\n\r\n\r\n}\r\n",
  "sourcePath": "F:\\Blockchain\\Plantilla_DApp\\src\\contracts\\Certificados.sol",
  "compiler": {
    "name": "solc",
    "version": "0.8.4+commit.c7e474f2.Emscripten.clang"
  },
  "schemaVersion": "3.4.9",
  "updatedAt": "2023-09-28T23:50:55.344Z",
  "networkType": "ethereum",
  "devdoc": {
    "kind": "dev",
    "methods": {},
    "version": 1
  },
  "userdoc": {
    "kind": "user",
    "methods": {},
    "version": 1
  }
}